:020000040800F2
:1000000000200020394E00080134000803340008A5
:1000100000000000000000000000000000000000E0
:10002000000000000000000000000000053400088F
:100030000000000000000000073400080934000838
:10004000894E000800000000894E0008894E000813
:10005000894E0008894E0008894E0008894E000824
:1000600000000000894E0008894E0008894E0008F3
:10007000894E0008894E0008894E000800000000E3
:10008000894E00080000000000000000894E0008B2
:1000900000000000894E0008894E0008894E0008C3
:1000A000894E0008894E0008894E0008894E0008D4
:0800B000894E00080000000069
:1000B80010B5064C2378002B07D1054B002B02D036
:1000C800044800E000BF0123237010BDDC010020BC
:1000D800000000001C760008044B10B5002B03D06C
:1000E8000349044800E000BF10BDC04600000000FE
:1000F800E00100201C76000802B471464908490056
:10010800095649008E4402BC7047C04602B4714685
:1001180049084900095C49008E4402BC7047C04642
:10012800002243088B4274D303098B425FD3030A2E
:100138008B4244D3030B8B4228D3030C8B420DD341
:10014800FF22090212BA030C8B4202D312120902CF
:1001580065D0030B8B4219D300E0090AC30B8B420D
:1001680001D3CB03C01A5241830B8B4201D38B03BB
:10017800C01A5241430B8B4201D34B03C01A524160
:10018800030B8B4201D30B03C01A5241C30A8B42A3
:1001980001D3CB02C01A5241830A8B4201D38B028E
:1001A800C01A5241430A8B4201D34B02C01A524132
:1001B800030A8B4201D30B02C01A5241CDD2C309A4
:1001C8008B4201D3CB01C01A524183098B4201D320
:1001D8008B01C01A524143098B4201D34B01C01A0B
:1001E800524103098B4201D30B01C01A5241C30883
:1001F8008B4201D3CB00C01A524183088B4201D3F2
:100208008B00C01A524143088B4201D34B00C01ADD
:100218005241411A00D20146524110467047FFE749
:1002280001B5002000F0F0F802BDC0460029F7D063
:1002380076E7704703460B437FD4002243088B427E
:1002480074D303098B425FD3030A8B4244D3030B55
:100258008B4228D3030C8B420DD3FF22090212BA1A
:10026800030C8B4202D31212090265D0030B8B4296
:1002780019D300E0090AC30B8B4201D3CB03C01A80
:100288005241830B8B4201D38B03C01A5241430B5B
:100298008B4201D34B03C01A5241030B8B4201D34B
:1002A8000B03C01A5241C30A8B4201D3CB02C01AB6
:1002B8005241830A8B4201D38B02C01A5241430A2E
:1002C8008B4201D34B02C01A5241030A8B4201D31D
:1002D8000B02C01A5241CDD2C3098B4201D3CB01C4
:1002E800C01A524183098B4201D38B01C01A524173
:1002F80043098B4201D34B01C01A524103098B4277
:1003080001D30B01C01A5241C3088B4201D3CB0061
:10031800C01A524183088B4201D38B00C01A524144
:1003280043088B4201D34B00C01A5241411A00D2F4
:1003380001465241104670475DE0CA0F00D049425D
:10034800031000D34042534000229C4603098B42CD
:100358002DD3030A8B4212D3FC22890112BA030A55
:100368008B420CD3890192118B4208D389019211D7
:100378008B4204D389013AD0921100E08909C3095C
:100388008B4201D3CB01C01A524183098B4201D35E
:100398008B01C01A524143098B4201D34B01C01A49
:1003A800524103098B4201D30B01C01A5241C308C1
:1003B8008B4201D3CB00C01A524183088B4201D330
:1003C8008B00C01A5241D9D243088B4201D34B004B
:1003D800C01A5241411A00D20146634652415B108D
:1003E800104601D34042002B00D54942704763466E
:1003F8005B1000D3404201B5002000F005F802BDB3
:100408000029F8D016E770477047C0468446081C94
:100418006146FFE71FB500F06DFB002801D40021FD
:10042800C8421FBD10B500F0EFFA4042013010BDC0
:1004380010B500F05FFB002801DB002010BD012093
:1004480010BDC04610B500F055FB002801DD0020A6
:1004580010BD012010BDC04610B500F0FDFA0028FF
:1004680001DC002010BD012010BDC04610B500F011
:10047800F3FA002801DA002010BD012010BDC046A3
:100488009E2110B5C905041CFFF7F0FF002803D111
:10049800201C00F075FE10BD9E21201CC90500F02F
:1004A800ABFC00F06DFE80231B069C466044F2E71F
:1004B800F8B54746CE4643025B0A4400C20F9C4645
:1004C8004800DD004B02240E5B0A000E80B59846FA
:1004D80026009146C90FDB00271A8A4229D0002F2F
:1004E80015DD00284AD1002B00D095E0ED08FF2C3F
:1004F80000D188E06B025B0AE6B25B02F605580A97
:100508003043D20710430CBC90469946F8BD002FE3
:1005180000D087E0601CC0B2012800DCB6E0EE1A0B
:10052800720100D5C5E0002E3DD10022002600232F
:10053800E3E7002F00DC96E000285DD0FF2C60D0B8
:100548008022D20413431B2F00DDECE02022D21BB3
:1005580018009340F8405A1E93410343ED186B016D
:100568007BD50134FF2C00D1B7E0012207262A40B1
:100578006B089A4D1D4015432E4029E0FF2CB5D03D
:100588008022D20413431B2F00DDB2E02022D21BAD
:1005980019009340F9405A1E93410B43ED1A6B0121
:1005A8005BD5AD01AE09300000F0A6FE05388640E7
:1005B800844265DC041B330020200134E340041B23
:1005C800A640751EAE41334307261D0000241E4079
:1005D80001224B461A40002E04D00F232B40042B37
:1005E80000D004356B0100D480E70134E6B2FF2C5B
:1005F8002FD1FF26002380E7002B52D1FF2C00D0FB
:1006080074E70A00ED08002DF3D08023DB032B43A9
:100618005B025B0AFF2670E7013F002FBED0FF2C6C
:10062800B1D163E7002C47D0FF2869D08024E404C7
:100638007A4225431B2A00DDC5E02C002026D44041
:10064800B21A95406A1E954125435D1B04008946F0
:10065800A5E7AB015B0A50E7002401224B461A408C
:100668006B07BAD142E7002F3BD10134E0B2012831
:100678004ADDFF2CBDD00726ED186D082E40A7E7F0
:100688000723574D241A35401E40A1E7002C1BD1E3
:10069800002D6ED1002B00D19AE00A001D003C000D
:1006A80024E7013F002F00D158E7FF2C00D04AE78C
:1006B800A7E75E1B894676E7002D1CD10A00FF28B4
:1006C8001FD004001D0011E7002D5DD1002B17D1AC
:1006D80080230022DB03FF260FE70A00FF26002302
:1006E8000BE7002C21D1002D66D1FF28E9D11D0090
:1006F80087E7012352E77A1CA7D0FA43FF2899D14C
:100708000A001D00FF24F1E6002E21D1002D4FD054
:10071800002B4CD0ED186B019ED5314B07362E407F
:1007280001241D4054E7012318E7FF28DFD0802467
:10073800E4047F4225431B2F4DDC2026F61B2C00AA
:10074800B540FC406A1E95412543ED18040006E7B4
:10075800002DCCD0002B00D153E780216046C9037F
:10076800084203D04046084200D11D000121114033
:1007780047E7002B00D1B9E6EA1A500125D507262C
:100788005D1B2E40894623E7FF24002B00D1ADE6F0
:1007980080226046D203104204D04046104201D164
:1007A8001D00894601224B46FF241A409EE62B0075
:1007B800DD080A0000249DE67A1CC6D0FF43FF2806
:1007C800B9D11D001DE701253FE7151E00D044E7FC
:1007D8000022002391E60125B7E7C046FFFFFF7D11
:1007E800FFFFFFFBF8B557464E464546DE46440236
:1007F800E0B546008846640A360EC70F002E63D05F
:10080800FF2E24D08023E400DB041C4300239946F8
:100818009B467F3E434642465D02D20F5B006D0A0F
:100828001B0E9046924665D0FF2B55D080220021A2
:10083800ED00D2047F3B1543F61A43464A467B40F7
:100848000F2A00D98DE06D48920082589746002CF7
:1008580054D108239946063BFF269B46DAE7002534
:10086800534602291BD0032900D1BFE0012928D013
:1008780030007F30002820DD6A0704D00F222A408C
:10088800042A00D004352A0103D530005C4A8030A0
:100898001540FE2803DCAC01640AC2B201E0FF2265
:1008A80000246402D205600ADB07104318433CBCED
:1008B80090469946A246AB46F8BD0122101A1B285D
:1008C8007CDD00220024ECE7002C1DD1042399468E
:1008D800033B00269B469DE7FF3E002D20D10221C9
:1008E80043464A467B400A430F2AD8D845489200D7
:1008F80082589746002D19D10121F1E70C2399461A
:10090800093BFF269B4685E7200000F0F5FC76268C
:10091800431F9C4000237642361A99469B4679E746
:100928004A4603231A439146032186E7280000F02C
:10093800E3FC431F36189D40763600217DE780246E
:100948000023E403FF22ACE700258023DB031C42DD
:1009580028D01D4226D12B435C02640A4346FF225D
:100968009FE762016C01A24224D21B210025013EAF
:10097800012710006D005200002801DB944201D8C5
:10098800121B3D4301390029F3D11400621E944122
:1009980025436DE7BA46594625005346022900D03B
:1009A80061E77CE78023DB031C436402640A3B00A5
:1009B800FF2276E7121B1A210125D9E79E362A0065
:1009C800B5402C00C240651EAC411443620704D0F8
:1009D8000F222240042A00D00434620103D4A40167
:1009E800640A00225DE7012200245AE78024E40318
:1009F8002C436402640AFF2253E7C0463876000895
:100A0800FFFFFFF77876000870B542004E024C00F1
:100A180045026D0A120EC30F760A240EC90FFF2A6B
:100A28000FD0FF2C11D00120A24200D070BDB542DA
:100A3800FCD18B420DD0002AF8D12800451EA841D0
:100A4800F4E70120002DF1D1EBE70120002EEDD1D4
:100A5800E9E70020EAE7C04670B54A004E024502C1
:100A680044006D0A240EC30F760A120EC90FFF2C1C
:100A780015D0FF2A0ED0002C15D1002A01D1002E46
:100A88001CD0002D14D08B4227D00220013B1840E7
:100A9800013870BD002EEED002204042F9E7002D4B
:100AA800FAD1FF2A0ED0002A0ED1002EEDD00BE08D
:100AB80001230139994308000130EAE70020002D9D
:100AC800E7D0E2E7002EE7D18B42DED1944205DD84
:100AD8000221581E08400138DBE70024A24204DC4A
:100AE800B542D2D80020B542D3D2581E012398432C
:100AF8000130CEE730B5420044024D02C30F480032
:100B0800640A120E6D0A000EC90FFF2A12D0FF28C0
:100B18000CD0002A12D1002819D1002D17D1002C91
:100B28002BD00220013B1840013826E0002DF0D0E0
:100B3800022022E0002CFBD1FF281FD000281FD163
:100B4800002D1DD10220013B1840013815E0002C72
:100B58000ED08B42E5D10022904204DCAC42E0D8B2
:100B68000020AC4209D2581E01239843013004E00A
:100B78000123013999430800013030BD002DD7D138
:100B88008B42CED18242E7DD0221581E084001384F
:100B9800F3E7C046F0B54E4657464546DE46E0B553
:100BA80043025B0A450083B00F1C99462D0EC60F01
:100BB800002D57D0FF2D24D08020DB00C00418431F
:100BC800002381469A469B467F3D7C027A00FB0FB4
:100BD800640A120E984623D0FF2A4BD0E3008024E3
:100BE8000020E4047F3A1C43AD186B1C4746019370
:100BF800534677403A000F2B48D87D499B00CB5885
:100C08009F46002B00D085E008339A46063B9B465A
:100C18007C027A00FB0FFF25640A120E9846DBD18E
:100C2800002C00D090E0524601231A43924601203E
:100C3800DBE74C4658461700022824D0032800D189
:100C4800CFE00022002301284DD15802D205400AE6
:100C5800FF071043384303B03CBC90469946A24670
:100C6800AB46F0BD002B5BD104239A46033B00251D
:100C78009B46AAE7FF35002C60D1524602231A434F
:100C880092460220B1E7FF220023DEE74B461B0C09
:100C98009C464B462604360C180461463300220C49
:100CA8006446000C43434E435043544380191A0C86
:100CB8001218964203D9802149028C4664441B04C9
:100CC8001B0C1004C01883015E1EB341800E18432C
:100CD800130C1B199B0103431C00230179D5012325
:100CE80062081C401443019A7F32002A4DDD6307D5
:100CF80004D00F232340042B00D00434230103D550
:100D08003C4B019A1C408032FE2ABCDCA3015B0AE2
:100D1800D2B29AE70C239A46093BFF259B4654E733
:100D2800180000F0E9FA4A46431F76259A40002346
:100D38006D4291462D1A9A469B4646E75246032332
:100D48001A439246032050E7200000F0D5FA431FCB
:100D58002D1A9C40763D002047E780230027DB03BF
:100D6800FF2272E7424666E74C463200584662E781
:100D780080234A46DB031A4222D01C4220D1234357
:100D88005B025B0A4746FF225FE701239A1A1B2A88
:100D980021DC23000199D3409E318C401A002300A6
:100DA8005C1EA34113435A0704D00F221A40042A99
:100DB80000D004335A0111D49B015B0A002244E796
:100DC80080234A46DB0313435B025B0A3700FF229A
:100DD8003BE7019587E70022002336E7012200233D
:100DE80033E78023DB0323435B025B0AFF222CE704
:100DF800B8760008FFFFFFF7F8B54746CE4644002F
:100E0800C20F80B547024802400A84466646480039
:100E18007F0A240EF60025009046FB00000EC90F3D
:100E2800B146FF2800D185E001267140261A91427B
:100E380057D0002E43DD002800D07FE04946002926
:100E480000D1AAE0013E002E00D0F7E05B1A5A015B
:100E580000D48BE09B019C09200000F04DFA053876
:100E68008440854200DDD3E0451B23002020013566
:100E7800EB40451BAC40621E9441234307240025E8
:100E88001C40012241460A40002C04D00F21194081
:100E9800042900D00433590100D480E00135ECB2B4
:100EA800FF2D00D0A3E0FF2400235B02E405580ACD
:100EB800D207204310430CBC90469946F8BD002E3B
:100EC80074D1601CC0B2012800DCA7E04A469C1A15
:100ED800620100D5B6E0002CBED100220024002318
:100EE800E3E7002E00DC85E0002846D0FF2C49D03F
:100EF80080224846D2041043814601221B2E09DC79
:100F080020204C46801B84404A462000F240441E64
:100F1800A04102439B185A0128D50135FF2D00D165
:100F2800A8E00122072494491A405B080B401343A8
:100F38001C40A6E7002E00D078E775E7FF2C54D0B8
:100F480080224946D2041143894601221B2E09DC1E
:100F580020214846891B88404A460100F240481E25
:100F680081410A439B1A5A0100D573E70122414681
:100F78000A40590700D089E711E04846002858D1AF
:100F8800FF2C0CD1DB08002B00D18CE78020C0039C
:100F980003435B025B0AFF2487E7FF2C25D0DB08AD
:100FA800FF2DF0D05B025B0AECB27EE7002C4DD03F
:100FB800FF2818D08024E404724223431B2A00DD52
:100FC800C4E01C002025D440AA1A93405A1E93411D
:100FD80023434A460500D31A884638E7721CF8D0DE
:100FE800F243FF28EAD10A004B46FF25D7E79B01C9
:100FF8005B0A5AE7002E41D1651CE9B2012945DD9B
:10100800FF2D00D14FE707244B445B081C4038E70D
:1010180007225A4B2D1A2340144032E7002C1DD1C9
:10102800002B7AD14B46002B00D191E00A00002515
:10103800B5E7013E002E19D14B446CE7FF2C84D153
:10104800FF25ACE74A468846D41A05E7002BC5D1E8
:101058000A00FF28C8D005004B46A0E7002B49D15D
:101068004B46002B77D00A00FF2598E7FF2C00D0CD
:1010780043E787E70A00FF24002316E7002C15D171
:10108800002B57D1FF28E6D14B467BE7002C20D117
:10109800002B57D04946002953D04B445A0168D5F4
:1010A8000724364A1C4001251340EAE6FF28EBD006
:1010B8008022D204764213431B2E53DC2025AD1B1D
:1010C8001A00AB40F2405C1EA34113434B44050099
:1010D80021E7002BD8D04946002900D152E78021CA
:1010E800C9030F4200D14DE76046084200D049E7E6
:1010F8004B4647E74846FF25002800D14FE78022A6
:10110800D203174204D06046104201D14B468846AC
:1011180001224146FF250A4041E7484600281FD0E2
:101128001A1A500120D54A460724D31A1C4088466B
:101138000025A6E6741CC9D0F643FF28BCD14B464F
:1011480020E799464B460025DB082BE7012340E7BB
:1011580000220023A9E680230022DB03FF24A4E663
:1011680000251CE70123B1E7002AF1D01300002570
:10117800FCE60025FAE6C046FFFFFF7DFFFFFFFB08
:1011880041024200C30F490A120E00207E2A0DD9DF
:101198009D2A0CD8802000040143952A0ADC962059
:1011A800821AD1404842002B00D108007047034AF8
:1011B8009818FBE7963A9140F4E7C046FFFFFF7F97
:1011C80070B500283DD0C317C5185D40C40F28006E
:1011D80000F092F89E22121A962A07DCD2B208284A
:1011E80033DD083885406802400A23E0992A0BDD80
:1011F800052329001B1AD94003001B339D402B00EF
:101208005D1EAB4119430D00052801DD431F9D40BC
:101218002B000F490B406E0709D00F263540042DCF
:1012280005D004335D0102D59F220B40121A9B01A1
:10123800580AD2B24002D205400AE40710432043BC
:1012480070BD002400220020F4E76802400AF1E79C
:10125800FFFFFFFB4100090E4B1C70B5DBB24602D5
:10126800750AC40F012B14DDE0239B006D07360BB4
:10127800CB1800210A0D280012051C4D32435B05CE
:101288002A405B0813435B00E4075B08234319000B
:1012980070BD002914D1002D1ED0280000F02CF8B4
:1012A8000A281CDC0B232A001B1ADA40030015331A
:1012B8009D400F4B12031B1A5B05160B5B0DD8E7FD
:1012C800002D06D0320B802636036D071643094BD6
:1012D800CFE7084B0026CCE700230026C9E7030028
:1012E8002A000B3B9A400025E3E7C046FFFF0F802A
:1012F80089030000FF0700001C2101231B049842FA
:1013080001D3000C10391B0A984201D3000A08398E
:101318001B09984201D30009043902A2105C401845
:101328007047C046040302020101010100000000E9
:10133800000000000023C25C0133002AFBD1581EC4
:10134800704700008446101C62468C46191C634690
:1013580000E0C0461FB500F0F1FE002801D40021CE
:10136800C8421FBD10B500F049FE4042013010BD13
:1013780010B500F0E3FE002801DB002010BD0120BD
:1013880010BDC04610B500F0D9FE002801DD0020D0
:1013980010BD012010BDC04610B500F06BFE00283E
:1013A80001DC002010BD012010BDC04610B500F0C2
:1013B80061FE002801DA002010BD012010BDC046E2
:1013C800F0B54F464646D6460C000903C0B5490A53
:1013D800470F5E0039431F03DB0F9C4665007B0AFD
:1013E800570F1F436D0DE40F760DA146C000B84698
:1013F800D200AB1B64457BD0002B5FDD002E00D0F4
:10140800A4E03E00164300D112E15E1E002E00D07B
:101418009EE1871A4346B84280410125C91A4042D5
:10142800091A0B0200D431E149024E0A002E00D1FC
:101438006EE13000FFF760FF0300083B1F2B00DD63
:1014480061E120223900D21A9E40D1409F400E43CC
:101458009D4200DD51E15D1B6B1C1F2B00DD7CE113
:101468002021C91A3D0030008F408840DD40791E98
:101478008F41310007222843D940002507433A40CD
:10148800002A09D00F233B40042B05D03B1DBB424B
:10149800BF417F42C9191F000B0200D426E26A1C13
:1014A800C64B55056D0D9A4200D106E1C44AFF08A6
:1014B8000A40530752023B43120B8EE0002B00D028
:1014C800B8E06B1C5B055B0D012B00DC30E1871A73
:1014D8004346B842B641CB1A76429E1B330200D52A
:1014E8004CE13B003343A1D100220024002570E0E9
:1014F800002B00DCE5E0002E00D183E0AF4EB542C2
:1015080060D0802636043743B846382B00DC3EE1ED
:10151800434613431F007A1E97413F188742804174
:10152800404209180B0200D4B0E0A44B01359D429B
:1015380000D1C3E0A24A7B080A4001210F401F43A3
:101548005108D30707221F433A4099E79B4EB542FB
:1015580038D0802636043743B846382B00DDDCE027
:101568001F2B00DC30E11E004746203EF740BC46FA
:10157800202B04D04026F31A46469E4032431700DB
:1015880063467A1E97411F43CCE0002B00D104E24A
:101598004346134300D159E14B07C0081843802341
:1015A800C9081B03194208D04546ED081D4204D15D
:1015B8004346D008590708432900420FC9007F4D08
:1015C8001143C0004B07CA087C49C00803438D4239
:1015D80068D012036D05120B6D0D0021120318005F
:1015E800130B0A0D12051A43764B2D0513402B4396
:1015F8005B00E4075B08234319001CBC904699462E
:10160800A246F0BD3E00164312D05E1E002E00D04A
:1016180000E187188742804141444042091801256A
:101628000B0233D5022585E7644633004146100096
:101638001D00C7E7002D00D0DAE00C000443F3D00A
:101648005C1C00D19FE15D4CA64200D12FE1DB4339
:10165800382B00DD66E11F2B00DD83E12024050027
:10166800E41A0F00DD40D940A0404346A7405B1A6A
:10167800441EA04198462F433843171ABA42924154
:1016880043465242991A64463500CAE607223A4050
:10169800002A00D0F6E64B07CA084849FF083B4332
:1016A8008D4296D11900114300D19EE18021090392
:1016B8000A431203120B414D8FE715000022002345
:1016C8008BE7002B00D0C7E06B1C5F057F0D012F57
:1016D80000DCF1E0394DAB4200D1B9E085180A00D1
:1016E800854289414244494251180722CF076D0873
:1016F8002F4349083A401D00C2E607223049ED1A37
:1017080031403A40BCE63E002838864000279FE634
:101718003800FFF7F1FD20308EE6434613431F00E3
:101728007A1E9741C71BB84280414042091A78E6A1
:101738000E003B0006431343002D61D1002E00D05C
:10174800F4E0002B00D11BE164463900100039E7B2
:101758001A4FBB427AD03300FFE630001F3DE84005
:10176800202B03D04021CB1A9E4037437B1E9F413C
:10177800072207433A400021002589E7171A434604
:10178800BA42B641591A76428E1B64464EE61F2B62
:1017980000DDADE020264746F61AB740B9461700E7
:1017A800B246DF404E463E4337005646B240561ECC
:1017B800B24117434246DA408918AEE6FF070000F7
:1017C800FFFF7FFFFFFF0F8020264746F61AB7402E
:1017D800B9461700B246DF404E463E4337005646EC
:1017E800B240561EB24117434246DA40891A99E779
:1017F8007F4CA6425BD0802424045B42214327E728
:10180800002E0CD1002B00D1CBE06446390010002B
:10181800774DD7E6764FBB4218D0330075E6002BDC
:1018280014D04B07C00818438023C9081B0319426A
:1018380007D0FC081C4204D17907D0080843E146C8
:1018480021004C46420FC9001143C000684DB9E65B
:101858001D0000220023C0E6002D5BD10D000543CA
:1018680000D1E2E65D1C00D1B0E0614DAE421FD070
:10187800DB43382B71DC1F2B00DD96E020250F00A1
:10188800ED1AAF40B9460700AA46DF404D463D4332
:101898002F005546A840D940451EA8418844074313
:1018A800BF18974292415142414435003AE6644696
:1018B80035004146100085E60B000343002D00D09B
:1018C80063E6002BF5D04346134300D17AE6871828
:1018D8008742804107224144404209183A400B029E
:1018E80000D4D5E6434B01351940C9E5380069E60F
:1018F8001E004746203EF740BC46202B04D0402619
:10190800F31A46469E403243170063467A1E9741B3
:101918001F4302E6364DAE42CAD080252D045B42F5
:101928002943A6E70843411E8841A6E6002B00D1BB
:1019380048E6871A4346B842B641CB1A76429E1B00
:1019480033024BD5171A4346BA429241591A5242AA
:10195800891A072264463A4092E501430F00791E2E
:101968008F419DE71C000F00203CE740202B03D04F
:101978004024E31A99400843411E884138437CE6D5
:101988000022002425E6171A4346BA429241591A02
:101998005242891A6446350043E541461000144D09
:1019A80010E680220024120380E61D000F00203D6F
:1019B800EF40BC46202B03D04025EB1A9940084342
:1019C80007006346781E87411F4369E787189742D7
:1019D8009B4141445B42C9183500A3E53B003343B2
:1019E800CED0072231003A4052E600231A00F4E52F
:1019F800FF070000FFFF7FFFF0B55746DE464E4663
:101A08004546E0B5834607000E03480085B0924678
:101A18001C00360B400DCD0F002800D19DE0954BE2
:101A2800984239D08023F6001B041E43924A7B0F4C
:101A380033439946944603006344009300230026E9
:101A4800FF00029323031B0B98466300E40F5246E2
:101A58005B0D019400D1B3E086498B4200D19EE032
:101A68004246D100802212040A435146490F1143CD
:101A78008B46814952468C4600996344CB1A002113
:101A8800D20000932B0063409A460F2E00D905E13F
:101A98007A4BB6009B599F465B463343994600D024
:101AA800B8E002230826002700900293CAE7CB4635
:101AB8003A0002990195019B9A46022927D00329E9
:101AC80000D180E2012944D06D49009B8C466344D3
:101AD8001C00002C38DD530700D013E2D2085B4607
:101AE800DB0109D55946674B19408B468021C9004F
:101AF8008C46009B63441C00634B9C4207DC5B469E
:101B080064055F075B0217431B0B620D02E00023AD
:101B18000027584A00211B031C0B0B0D1B052343F0
:101B280014055A4A380013401C4353466400DB0727
:101B380064081C43210005B03CBC90469946A24667
:101B4800AB46F0BD0122524201231B1B382B00DC9F
:101B5800ADE1002200230027DCE75B4633439946CA
:101B68005ED0002E00D18AE13000FFF7C5FB0300EC
:101B78000B3B1C2B00DD7BE11D22D31A5A460100CA
:101B8800DA4008398E4013005F46334399468F4048
:101B98003F4B00261B1A00930023029352E741464D
:101BA80053460B433B499B468C46009B634400933A
:101BB8005B46002B3BD1022300221E43022161E732
:101BC800434613439B4637D04346002B00D162E17E
:101BD8004046FFF791FB03000B3B1C2B00DD53E154
:101BE80002004146083A914088461D21CB1A5146C9
:101BF800D9400B0041460B439B46534693401A007D
:101C0800009B25499C46604403008C46634400932E
:101C1800002137E70323B14600900C26029311E711
:101C28000023009301330426002702930AE70323C5
:101C3800C3461E43032125E701331E430022012129
:101C480020E700239A46802300271B03094A61E7FF
:101C5800802349461B03194200D1E2E05946194244
:101C680000D0DEE00B431B0317001B0BA246014A02
:101C780050E7C046FF07000001FCFFFFF8760008A8
:101C8800FF030000FFFFFFFEFE070000FFFF0F80BD
:101C98000DFCFFFF01F8FFFFF3030000D94500D951
:101CA800CBE000D1C6E03C0048460027009B013B42
:101CB80000935B46160E1B021E431302984633041C
:101CC8001B0C9946310C0191FEF7B0FA4A46424383
:101CD8000B04210C050019438A4207D98919013DD3
:101CE8008E4203D88A4201D9851E8919881A01991A
:101CF800FEF79CFA09048C464A462104644642438E
:101D0800090C030021438A4204D98919013B8E42F8
:101D180000D8F1E02D041D43AB464346891A4246DC
:101D2800280C12041D0C5B46140C22001B041B0C0F
:101D38005A4303946B434443029568431B19150C9B
:101D4800EB189C4203D980246402A44660441C0C0E
:101D580015041B042D0C20185D19814277D373D00C
:101D68000C1AA24A7D1BAF42BF419446009B7F429A
:101D78006344E01B1C00864200D1DBE00199FEF7BA
:101D880055FA4A4642430B04290C070019438A4274
:101D980007D98919013F8E4203D88A4201D9871E83
:101DA8008919881A0199FEF741FA09044A468946B1
:101DB80029044D464243090C030029438A4207D9A6
:101DC8008919013B8E4203D88A4201D9831E891999
:101DD8003F04891A3A00039F1A43380013041B0C66
:101DE800584381460298150C6F4343434543484680
:101DF800000C8446DB1963449F4203D980204002CB
:101E08008446654448461F0C00041B04000C7D19D9
:101E18001818A94200D284E000D17FE001231A43B8
:101E280057E680234A461B0313431B031B0BAA4692
:101E38006F4A6FE6BA4200D935E74B46DC075808C7
:101E48007B081C43FF0734E70024AF4289D247448C
:101E58004745A4415B466442A4196418013BA64265
:101E68001ED2A0426DD800D1B6E0241A9B4678E76E
:101E780003005A46283B9A400027914688E6584670
:101E8800FFF73AFA203072E603005246283B9A40A0
:101E980093460022B4E65046FFF72EFA20309AE621
:101EA800A642E2D1B845DCD9341A9B4659E71F2B24
:101EB80065DC504C0099A4465C46614408008C409F
:101EC80011008240D940501E82410C4314435A46A7
:101ED800DA401300620709D00F222240042A05D0F5
:101EE8002200141D9442894149425B181A0262D5A6
:101EF8000122002300270DE68A4200D80AE7831E44
:101F0800891907E70F231340042B00D1E6E5171DB5
:101F18009742924153429B44FA08E0E5002800D1D9
:101F2800D7E57118531EB14227D3A94215D358D00B
:101F38001A0073E7002B00DC04E6012300229B440F
:101F4800CDE502234744474589415B429C464942C7
:101F580089190C19E344241A03E743465F004745EF
:101F68009B41B8465B429E19023A8919A94200D0A2
:101F780054E7404500D051E7ABE51A00F6E71F21CA
:101F88005F4649420C1BE740202B07D01A49009BAB
:101F98008C46634418005B4683401A43501E8241B6
:101FA8003A4307270023174009D00F210023114087
:101FB8001400042995D122005F075B021B0BD2088D
:101FC80017430022A6E5802359461B030B431B0336
:101FD80017001B0B064A9DE5BD42B2D89B4600245C
:101FE800BFE68045B9D31A00C3E7C046FF03000027
:101FF800FF0700001E0400003E040000F0B54F4635
:102008004646D6468446C0B58046194E18030F0387
:102018004D00000B5C0082463F0B6D0DC90F9146C9
:10202800640DDB0F0120B5420AD0B44203D0A542AB
:1020380001D157450CD01CBC90469946A246F0BD2C
:1020480066463E43F7D1AC42F5D154461443F2D12B
:102058000120C845EFD1994207D0002DEBD1634646
:102068001F433800471EB841E5E70020E3E7C046B4
:10207800FF070000F0B54F464646D6464D00C0B5AE
:102088000E03C90F8A462C491F035C008046360B95
:102098006D0D91463F0B640DDB0F8D421ED08C42B7
:1020A80016D0002D1ED130438446002C01D13A436E
:1020B80023D06246002A1AD09A4529D051460220D8
:1020C8000139084001381CBC90469946A246F0BD2B
:1020D80039001143E5D002204042F4E73043FAD1F9
:1020E800AC420FD0002C0FD13A43E7D00CE00122CC
:1020F800013B934318000130E5E763460020002BBD
:10210800E1D0DBE73A43E6D19A45D7D1A542D5DC01
:10211800A54205DBBE42D1D808D00020BE42D2D2AB
:1021280050460123013898430130CCE7C845C5D84B
:102138000020C845F4D3C6E7FF070000F0B54F46B6
:102148004646D6464D00C0B50E03C90F8A462E49ED
:102158001F035C008046360B6D0D91463F0B640DE6
:10216800DB0F8D4218D08C4211D0002D18D130438E
:102178008446002C1ED13A431CD163460020002B14
:1021880030D0514602200139084001382AE0390090
:102198001143EAD0022025E03043FBD1AC4226D0DF
:1021A800002C26D13A4324D1514602200139084057
:1021B800013817E06246002A0FD09A45E1D1A542BE
:1021C80005DBBE42DDD819D00020BE420AD25046F7
:1021D800012301389843013004E00122013B934375
:1021E800180001301CBC90469946A246F0BD3A43FF
:1021F800D0D19A45C5D1A542C3DCE0E7C845C0D8CF
:102208000020C845E3D3EDE7FF070000F0B55746C7
:10221800DE464E464546E0B5834606000F034800B5
:1022280087B092461D003F0B400DCC0F002800D10F
:102238006FE0DE4B984238D08023FF001B041F4319
:10224800730F3B430193DA4B0027994600239B46C3
:10225800F60081442B0369001B0B52469846490D32
:10226800ED0F002900D185E0D04B994200D173E0F1
:102278004346DA0080231B0413435246CC48520FCE
:1022880084461343524600206144D2008944210009
:10229800694000918C46012149448A460F2F00D994
:1022A80090E0C449BF00CF59BF465B463B4301930A
:1022B80000D06AE102230827002681469B46C9E729
:1022C80032005846019B61460091022800D175E012
:1022D800032800D1FEE1012800D02CE100230027CB
:1022E800002600253F032A0D3F0BB34812053A4349
:1022F80002401B051343009A5B00D1075B080B43A0
:102308003000190007B03CBC90469946A246AB463F
:10231800F0BD5B463B43019300D12FE1002F00D174
:10232800A5E13800FEF7E8FF03000B3B1C2B00DD9E
:1023380096E11D22D31A5A460100DA405E46083952
:102348008F4013008E403B4301939C4B00271B1A80
:10235800994600239B467DE7414653460B439349E4
:102368008C46E144002B00D01AE1022202201743D8
:1023780000228CE7134300D10DE14346002B00D126
:1023880081E14046FEF7B8FF02000B3A1C2A00DD47
:1023980072E10100434608398B4098461D239A1A7A
:1023A8005346D3401A004346134352468A4049468F
:1023B800081A824989468144002068E77B4B002738
:1023C80000268EE7140C1204120C1100370C360488
:1023D800350C794328008C462E00604360448346C0
:1023E80056432100300C80465846794340440291B8
:1023F800844506D98846802149028C46E0444146F6
:1024080002913604010C360C00048B4681191E0C0F
:102418001B041B0C0391190079438C462800754353
:102428006544A8465843050C45447743A94203D957
:10243800802149028C466744290C8C4639000004E7
:10244800000C2D042D186144AB44059159460491A4
:1024580001990F043F0C080C390051434243904640
:1024680002008C46090C8B4662437C4344445C441E
:10247800A04503D98021490288464244210C884658
:1024880061460904090C8C4639005943434370439B
:102498007E430F0CF6182404BE19644442448C464B
:1024A800B34203D980235B0298464044029B6146AD
:1024B8009846049B370443449B46AB45AD416B4269
:1024C8000D0405992D0C8C467F196744FD18A84604
:1024D8005D462D19A542A44193466442A446C344CF
:1024E800DC448F42BF4198459B4193459241A445A6
:1024F800A4415B427F421F43360C52426442BF19DB
:102508002243BF18624638184302D20D0399134379
:102518006A020A43501E82416146ED0D2A434E026B
:102528003243D90100D4B3E00126500832400243B7
:10253800DE0732435B08224C5444002C62DD51070D
:1025480009D00F201040042805D0101D9042924158
:1025580052429B180200D90104D580241948E4008E
:10256800034054441848844200DD27E75E075B02B5
:10257800D2081F0B630516435B0DB2E6002399468C
:102588000133042700269B4664E60323019781460E
:102598000C279B465EE6012201201743002276E6BF
:1025A800032303201F43434671E6C046FF0700008C
:1025B80001FCFFFF38770008FFFF0F800DFCFFFFCD
:1025C800FF030000FFFFFFFEFE0700000023802737
:1025D80000933F030026434B83E6019B3200A44649
:1025E800584670E6AC466EE6802701993F033942AB
:1025F8002DD03B422BD11F433F033F0B00951600C4
:10260800384B6EE601252D1B382D00DD66E61F2DA3
:1026180040DC35481C005044160082408440EE409F
:10262800501E824134431443EB40620709D00F2205
:102638002240042A05D02200141D944280414042C1
:102648001B181A023ED501230027002649E68027D9
:10265800019B3F031F433F033F0B0094214B40E680
:1026680003005A46283B9A40002601926DE65846D8
:10267800FEF742FE203057E603005246283B9A40B8
:102688001300002293E65046FEF736FE20307BE624
:10269800CA4650E71F201E004042041BE640202D7A
:1026A80003D0124C5444A3401A43501E8241324373
:1026B80007260027164009D00F20002310401400D9
:1026C8000428B9D122005E075B021F0BD20816430B
:1026D800002306E680273F031F433F033F0B1600F6
:1026E800004BFEE5FF0700001E0400003E0400004A
:1026F800F8B557464E464546DE460C000903E0B598
:10270800490A460F5F0031431E03DB0F760A9B46DA
:10271800530F3343C84E6500C000E40FD2006D0D5F
:10272800A24681467F0D9C469046B74200D1B9E04B
:102738005B46012673409B46EE1BA34500D183E010
:10274800002E63DD002F00D0B1E06346134300D1B3
:1027580023E1731E002B00D0BAE1861A6346B0420B
:1027680080410125C91A4042091A0B0200D447E1E9
:1027780049024B0A98464346002B00D189E140465E
:10278800FEF7BAFD0300083B1F2B00DD7CE1202289
:102798003000D21A4146D040994002009E400A4378
:1027A8009D4200DD6AE15D1B6B1C1F2B00DD94E17F
:1027B800202110003500C91A8E40DA408840DD40DB
:1027C800711E8E411100072228430025064332401E
:1027D800002A09D00F233340042B05D0331DB34200
:1027E800B641764289191E000B0200D43DE26A1CEC
:1027F800914B55056D0D9A4200D119E18F4AF608A3
:102808000A40570752023743120B9BE0002E00D0B4
:10281800C5E06E1C7605760D012E00DC48E16746A2
:10282800861ACB1BB042BF417F42B8461F004346C1
:10283800FF1A3B00B8461B0200D55FE137439AD127
:1028480000220024002579E0002E00DCFAE0002FA9
:1028580000D18DE0784B9D4267D0802367461B04EA
:102868001F43BC46382E00DC52E1634613435A1E10
:1028780093411E1886428041404209180B0200D439
:10288800BEE06D4B01359D4200D1D2E06B4A730822
:102898000A4001210E401E435108D30707221E4358
:1028A800324095E71E00164300D045E740E7624BEB
:1028B8009D423AD0802367461B041F43BC46382EEE
:1028C80000DDEBE01F2E00DC3AE133006746203BD9
:1028D800DF403B00202E05D04027BF1B6646BE4088
:1028E800324390464646721E96413343DAE0002B47
:1028F80000D114E26346134300D168E180234E07F8
:10290800C008C9081B030643194208D06046C0081E
:10291800184204D163460100D2085E071643F3004B
:102928009946C900720F444D11434B46DE08424B8D
:102938004F073743CA089D4200D16EE012036D0568
:10294800120B6D0D00211203130B0A0D12051A4309
:102958003B4B2D0513402B435B00E4075B082343E7
:10296800380019003CBC90469946A246AB46F8BDD3
:102978006346134311D0731E002B00D007E186185D
:102988008642804161444042091801250B0237D52F
:1029980002257BE73E00614691463500C5E75C4667
:1029A800002D00D0E1E00B000343F3D0731C00D1ED
:1029B800ACE1214B9F4200D13AE1F343382B00DDD3
:1029C8006FE11F2B00DD8CE120250E00ED1AAE40D3
:1029D800B0460600AA46DE40454635432E00554619
:1029E800D940A8406346451EA8415B1A9C4630431F
:1029F800161AB242924163465242991A3D00B4E611
:102A080007223240002A00D0E4E60B4BF6084F07B5
:102A18003743CA089D4200D090E73B00134300D1DA
:102A2800A6E180231B031A431203120B024D89E708
:102A380015000022002785E7FF070000FFFF7FFF42
:102A4800FFFF0F80002E00D0C7E06B1C5E05760DDF
:102A5800012E00DCF0E0C84DAB4200D1B9E085188A
:102A68000A00854289416244494251180722CE072B
:102A78006D082E43490832401D00A9E6BF49ED1AEA
:102A8800114007223240A3E632002838824000264F
:102A980086E63000FEF730FC203073E663461343C9
:102AA8005A1E9341C61AB04280414042091A5CE658
:102AB8000E00674606431743002D5ED1002E00D056
:102AC800F3E0002F00D11EE15C46614691462CE7F9
:102AD800A94FBE427BD01E00F1E610001F3DE84022
:102AE800202B03D04021CB1A9A401643731E9E41D7
:102AF8000722064332400021002583E7161A634661
:102B0800B2428041591A40420B1A98465C4632E656
:102B18001F2E00DDABE02027BB1B9A4663465746B5
:102B2800BB40994613004F46F3401F433B005746AE
:102B3800BA40571EBA4113436246F240891898E6D4
:102B48002027BB1B9A4663465746BB40994613004D
:102B58004F46F3401F433B005746BA40571EBA4101
:102B680013436246F240891A9CE7834B9F425FD029
:102B780080252D047342294320E7002E0CD1002F15
:102B880000D1D0E05C46614691467B4DCDE67A4F58
:102B9800BE421CD01E0065E6002F18D0C0084E07A4
:102BA80006438020C9080003014208D06346DC08B8
:102BB800044204D12100DA46D2085E071643F30026
:102BC800994601245346C900720F11431C406A4DAF
:102BD800ABE61D0000220027B4E6002D59D10B00FA
:102BE800034300D1D6E6731C00D1B2E0624B9F428A
:102BF8001ED0F343382B6FDC1F2B00DD97E0202518
:102C08000E00ED1AAE40B0460600AA46DE40454624
:102C180035432E005546A840D940451EA8418C444E
:102C28000643B61896429241514261443D0025E65A
:102C38003D006146914678E60B000343002D00D025
:102C480055E6002BF5D06346134300D16DE6861890
:102C58008642804161444042091800220B0200D498
:102C6800D0E6464B01351940B2E5B1465DE6330082
:102C78006746203BDF403B00202E05D04027BF1B86
:102C88006646BE40324390464646721E96413343DE
:102C9800EFE5394B9F42CBD080252D047342294361
:102CA800A8E70843411E8841A2E6002F00D13CE670
:102CB8006346861ACF1AB0429B415B42FB1A98467C
:102CC8001B024ED5161A6346B2429241591A524215
:102CD800891A5C4600227BE501430E00711E8E4175
:102CE8009FE71D000E00203DEE40B046202B04D08B
:102CF8004025EB1A99400843814648464346411E01
:102D08008841184374E60022002417E6161A634621
:102D1800B2429241591A5242891A3D0025E561464C
:102D28009146154D01E680220024120379E61D0024
:102D38000E00203DEE40B046202B04D04025EB1A73
:102D48009940084381464E464346711E8E411E43B4
:102D580067E7861896429B4161445B42C9183D006B
:102D68008CE547463743CED007224146324049E6F4
:102D780000273A00E6E5C046FF070000FFFF7FFF97
:102D880070B50C4E0D031C0349005B002D0B490D5B
:102D9800240B5B0DB14208D0064900208B4203D1B9
:102DA80014432000441EA04170BD05430120002D9E
:102DB800FAD1F1E7FF07000030B5144D0A034B00C4
:102DC800120B5B0DC90F0024AB4211DD104CA3425E
:102DD80010DC8024640322430E4CE41A1F2C0CDD03
:102DE8000D48C31ADA4013005C42002900D11C00C8
:102DF800200030BD094BCC18FAE7094DE040AC463D
:102E080063449A4013000343EEE7C046FE03000004
:102E18001D0400003304000013040000FFFFFF7FBF
:102E2800EDFBFFFF70B500282DD0C317C5185D4016
:102E3800C40F2800FEF760FA154B1B1A5B055B0DE3
:102E48000A2815DD0B38854000222D032D0B0021A3
:102E580010002D030A0D2D0B12052A430D4D1B05DD
:102E68002A4013435B00E4075B082343190070BD45
:102E780002002900153291400A000B21081AC540AA
:102E88002D032D0BE3E70024002300250022DEE7B5
:102E98001E040000FFFF0F8010B5041E25D0FEF7AA
:102EA8002BFA144B1B1A5B055B0D0A2812DD0B3835
:102EB800844000222403240B0021100024030A0D5F
:102EC800240B120522430C4C1B05224013435B00C4
:102ED800590810BD02002100153291400A000B214B
:102EE800081AC4402403240BE6E700230024002228
:102EF800E2E7C0461E040000FFFF0F80FA2310B56A
:102F080014009B0092B2024801F068FE200010BD38
:102F1800B80200200023F0B5A025102687B004933E
:102F28000593154B04ACED0503912200AE62070032
:102F3800009305A90423114801F078F8AE612388AD
:102F48005BBA98B2A37800020343E4781B022343D8
:102F58009814002B02DA0A489B0C1843FEF730F944
:102F6800FA218905FDF716FE03231C40039B3860F0
:102F78001C7007B0F0BDC046FF0F000054020020CF
:102F880000C0FFFF154B70B51B781500002B22D031
:102F98001349FDF727FC1349FDF78AFA0021FDF7CD
:102FA80087FA0021041CFDF743FA002800D000240A
:102FB8000D49201CFDF716FC0C49FDF7EBFD0B49EC
:102FC800041CFDF749FA002800D0084C201CFDF726
:102FD80057FA288070BD0649DBE7C046F801002093
:102FE8000000C8430000A03F23DB514000F07F45AC
:102FF8000000484310B592B03422002105A801F022
:103008006BFF0021102201A801F066FF80208000DC
:1030180000F08EFB80235B000893002309930E9336
:1030280008330F9380239B021093E023022440224D
:103038001B0605A805940A920C940D94119300F0B0
:10304800A1FB011E01D072B6FEE70723039004908E
:1030580001A80193029400F0FBFD002801D072B68C
:10306800FEE712B010BD0000F0B510259BB000F0CF
:103078002FFAFFF7BFFF2A0000210FA801F02CFF4D
:10308800042001277A4B0024596B014359635A6B7A
:103098000DA902400292029A5A6B76483A435A6343
:1030A8005B6BA0223B400193019B8023D2051B024E
:1030B800836195610D930E9701F06AFEA0200DA91A
:1030C800C0050D970E94119701F062FEA0200DA97E
:1030D800C0050D950E970F941094119401F058FEA9
:1030E8006548664B8460036082235B004360E0238D
:1030F800DB00C36080239B008361E93BFF3BC36126
:10310800113BC362DB190461446104624462846256
:103118000463436300F012FF0500A04201D072B6B9
:10312800FEE703AE01000C22300001F0D5FE1C22A0
:10313800290006A801F0D0FE342229000DA801F0CC
:10314800CBFE4F4C4F4B200023600223636080234B
:103158005B01A560E36025616561A56101F0C0F9C7
:10316800002801D072B6FEE703907060B0603100AD
:10317800200001F03BFB021E01D072B6FEE760237F
:103188000790089009900A900B900C9006A92000CF
:10319800069301F00BFA002801D072B6FEE78023EF
:1031A8009B01129380230D900E900F901090119018
:1031B8001390149015909B041790189019900DA9CE
:1031C8002000169301F044FB051E01D072B6FEE7FD
:1031D800200000F0BDF82C482C4B85600360962336
:1031E8009B0143600C23C560056143618561C5612E
:1031F80005624562856201F097FD002801D072B62C
:10320800FEE7A023DB051B693B4201D1204B1F7061
:103218000021002380271A4D06AC28000D93218039
:10322800317001F055FA2B6822883F025A63310049
:103238000DA8FFF76FFE220031780D98FFF7A2FE68
:1032480022882B685A633278002A00D0012239007C
:10325800084800F067FA0D98FDF7FCFF02000B0024
:103268000C4802F09FFA502000F058F9DFE7C046FA
:1032780000100240000800505402002000300140B5
:1032880008020020002C0140B80200200044004041
:10329800F80100207877000801200A4B82B0196CE9
:1032A8000143196480211A6C490502400092009A72
:1032B800DA6B0A43DA63DB6B0B400193019B02B0C4
:1032C8007047C0460010024010B5040088B01422B0
:1032D800002103A801F000FE104B22689A421AD17F
:1032E80080200F4B4001196C0143196401211A6CAD
:1032F80002400192019A5A6BA0200A435A635B6B01
:10330800C0050B400293029BC22303A90393C03B51
:10331800049300F059F908B010BDC04600300140D0
:1033280000100240084B026882B09A4209D18020FE
:10333800064A0001116C01431164136C03400193A8
:10334800019B02B07047C046002C014000100240AB
:1033580010B5040086B01422002101A801F0BCFDBC
:103368000C4B22689A4213D101200B4A516B01433E
:103378005163536B01A903400093009B8023A02055
:103388005B000193C005FE3B0293059300F01CF916
:1033980006B010BD002C01400010024010B504001A
:1033A80088B01422002103A801F096FD104B226872
:1033B8009A421BD180200F4B8002D96B0143D963FD
:1033C800DA6B02400192019A0122596BA020114345
:1033D80059635B6B03A913400293029B0C23C0053E
:1033E80003930A3B0493079200F0EEF808B010BD6F
:1033F8000044004000100240FEE7FEE770477047B7
:1034080010B500F079F810BD70B50E0015000C006D
:10341800A31B9D4201DC280070BD00E000BF2070A6
:103428000134F5E70A4B10B519680200002901D1EB
:10343800084919606946186882188A4206D901F055
:1034480021FD0C2303600120404210BD1A60FCE7F7
:10345800FC010020500300200120404270478023D7
:103468009B0100204B607047012070470020704787
:103478008022024B12059A607047C04600ED00E0BA
:10348800104B70B519780500002901D1012070BDD5
:10349800FA208000FCF744FE0B4B01001868FCF78B
:1034A8003FFE00F077F8041EF0D1032DEED802009D
:1034B80001202900404200F043F8044B20001D6021
:1034C800E5E7C046040000200000002008000020B6
:1034D8008023084A5B00116810B50B431360002075
:1034E800FFF7CEFF041E03D1FFF7D6FE200010BD64
:1034F8000124FBE700200240034A044B11681B78B3
:103508005B1813607047C046480300200400002081
:10351800014B18687047C0464803002070B5040086
:10352800FFF7F6FF0500631C02D0044B1B78E41874
:10353800FFF7EEFF401BA042FAD370BD0400002045
:1035480030B5FF2503242A00C3B21C40E400A24082
:1035580089012940D243A14000280ADBC0240B4B33
:1035680080088000C018A40003591A401143015173
:1035780030BD0F200340083B05489B089B001B18E3
:10358800D86902401143D961F2E7C04600E100E082
:1035980000ED00E0094A431E012093420DD8C021E6
:1035A800074A08485360036A09061B021B0A0B43B3
:1035B800036200200723906013607047FFFFFF003D
:1035C80010E000E000ED00E0F0B50B6885B0039373
:1035D8000023039ADA4001D105B0F0BD01229A40D8
:1035E80094466446039A2240019200D18BE0032559
:1035F8004A685E0017000092B54010229743EA43DC
:1036080002927A1E012A10D88468029A0125144071
:10361800CA68B24022438260624644689443009A72
:1036280012092A409A4022434260C468029A144010
:103638008A68B2402243C260022F0DD107240F25A9
:103648001C40A400A540DA0892008218176AAF430C
:103658000D69A5402F43176203240268029D154097
:10366800009A2240B24080241543009A6405056000
:10367800224248D003250F271D40ED00AF40234AC2
:103688009C08A400A418266E0022BE43A027FF05AC
:10369800B8420CD01E4F0132B84208D01D4F01323B
:1036A800B84204D01C4F0332B84200D1023AAA40B3
:1036B80032432266194A019CD66F019D009FE4435C
:1036C8003543FF0301D435002540D567144D019ECD
:1036D800EA6F009F1643BF0301D4224016000B4A2D
:1036E800EE671668019D009F3543FF0201D435003F
:1036F800254015605568019E009F2E43BF0201D4E6
:1037080025402E005660013363E7C046001802408A
:103718000004005000080050000C0050041802403B
:1037280008180240002A01D0816170478162FCE7D5
:1037380010B5104C1049236802000B400343236066
:10374800802300209B009A420CD10C4B0C4918682E
:1037580006235843FCF7E4FC8022431CD20060692E
:10376800104000D110BD002B01D0013BF7E703202A
:10377800F8E7C04600700040FFF9FFFF0000002096
:1037880040420F00F0B5040085B0002802D10120A6
:1037980005B0F0BD0368DB0710D423689B075CD431
:1037A80023681B0700D5C2E023685B0700D5F4E057
:1037B800E269002A00D07BE10020E9E73822B04D19
:1037C800AB681340EA68102B09D1D243930708D19C
:1037D8002B689B03E1D56368002BDED1D7E7082B64
:1037E800F6D0802263685202934211D12A681343AB
:1037F8002B60FFF78DFE80260700B6022B68334248
:10380800CBD1FFF785FEC01B6428F7D90320BFE79B
:10381800A021C9028B4208D180232968DB020B430F
:103828002B602B681A432A60E3E72A6895490A4007
:103838002A602A6894490A402A60002BD9D1FFF7E8
:1038480067FE80260700B6022B683342A5D0FFF733
:103858005FFEC01B6428F7D9D8E73823884DAA68CB
:103868001340EA68102B29D103210A40022A27D1E4
:103878002A68520503D5E268002A00D187E76968FB
:1038880062698248120201400A436A60002B0DD126
:103898002B687F4A1340226913432B602B687D4AAB
:1038A8009B045B0FDA4013007B4A13607B4B18685C
:1038B800FFF7E6FD002800D172E768E7002BD7D0B4
:1038C800E368002B20D02B68714A802613402269B8
:1038D800F60013432B6080232A685B0013432B6098
:1038E800FFF716FE07002B68334207D06A68636942
:1038F80066491B020A4013436B6051E7FFF708FE55
:10390800C01B0228EFD981E72B68654A802613403F
:103918002B60FFF7FDFD0700F6002B68334200D14E
:103928003EE7FFF7F5FDC01B0228F6D96EE7382100
:10393800534B9A681D000A40182A08D11B6E9B0732
:1039480000D431E7A369002B00D02DE71FE7A26957
:103958000123002A10D02A6E022613432B66FFF794
:10396800D7FD07002B6E334200D01DE7FFF7D0FDCF
:10397800C01B0228F6D949E72A6E02269A432A660E
:10398800FFF7C6FD07002B6E334200D10CE7FFF7A7
:10399800BFFDC01B0228F6D938E73821384B9A6892
:1039A8001D000A40202A08D1DB6D9B0700D4FFE6E2
:1039B800A368002B00D0FBE6E9E680220021DB6B40
:1039C80052050091134208D1EB6B1343EB63EB6B89
:1039D80013400393039B012300938027314E7F00FC
:1039E80033683B4215D0A368012B22D1EA6D1343FB
:1039F800EB65FFF78DFD02270600EB6D3B4238D0E3
:103A0800009B012B00D0D3E6EB6B274A1340EB63F6
:103A1800CEE633683B433360FFF77AFD01903368A5
:103A28003B42E0D1FFF774FD019BC01A0228F6D98A
:103A3800ECE6EA6D052B05D1013B1343EB65EA6D16
:103A48000123D4E701218A43EA65EA6D03318A43F9
:103A5800EA65002BCDD1FFF75BFD02270600EB6D71
:103A68003B42CDD0FFF754FD104B801B9842F6D94E
:103A7800CCE6FFF74DFD0D4B801B9842BDD9C5E63E
:103A880000100240FFFFFEFFFFFFFBFFFF80FFFF6C
:103A9800FFC7FFFF0024F4000000002008000020FA
:103AA800FFFEFFFF00700040FFFFFFEF88130000DC
:103AB8003820404B99681D000140102952D01B68DE
:103AC8003D490B402B60022A35D1FFF721FD8026A6
:103AD8000700B6042B68334227D1616A236AEA6873
:103AE8000B4336490A401343E26A1343226B1343DC
:103AF800A26A802412021343EB6080232A685B04C5
:103B080013432B608023EA685B051343EB60FFF7E0
:103B1800FFFC0600A4042B68234200D04CE6FFF704
:103B2800F7FC801B0228F6D970E6FFF7F1FCC01BF2
:103B38000228CFD96AE60322EB6880249343EB601E
:103B4800EB681F4AA4041340EB60FFF7E1FC060092
:103B58002B68234200D12FE6FFF7DAFC801B0228EE
:103B6800F6D953E6012A00D111E6D8680323226A60
:103B78000340934200D00AE67023626A03409342EE
:103B880000D004E6FE22A36AD20102401B029A4238
:103B980000D0FCE5F823E26A9B030340934200D07F
:103BA800F5E5236B400F4007C01A431E9841C0B289
:103BB800EEE5C04600100240FFFFFFFE8C80C11FEB
:103BC800FFFFFEEF38231F4A70B5916814001942B1
:103BD80008D1012113681C489B045B0F9940FCF72E
:103BE8009FFA70BD91681940082925D0916819403D
:103BF800102915D1D368D168DB437F22E5684906CF
:103C0800490F2D0A013115409B0707D10F48FCF7D2
:103C180087FAE1686843490F0131E0E70A48F6E7A7
:103C280091681940202909D0926800201340182B68
:103C3800D7D1FA20C001D4E70448D2E78020000297
:103C4800CFE7C046001002400024F40000127A00BA
:103C5800F7B505000E00002801D10120FEBD072799
:103C68004A4C23683B408B422AD329688B073BD4B4
:103C7800CB0748D4072723683B40B3420AD92368B7
:103C8800BB4333432360FFF743FC019023683B4069
:103C9800B3426BD12B683E4C5B076FD4FFF792FFA2
:103CA800A3683C4A1B051B0F9B009B581F2213400F
:103CB800D840394B1860394B1868FFF7E1FBCDE75E
:103CC8002368BB430B432360FFF722FC0190236862
:103CD8003B40B342C9D0FFF71BFC019BC01A304BD5
:103CE8009842F4D90320B9E7294A4B0704D5E023C1
:103CF8009068DB010343936093682A480340A868EF
:103D080003439360B4E76A68214F012A19D13B68DD
:103D18009B03A2D50721BB688B431343BB60FFF706
:103D2800F7FB01903823BA681A406B68DB009A42A7
:103D3800A0D0FFF7EDFB019BC01A194B9842F1D9AF
:103D4800D0E7022A03D13B689B01E3D485E7002A28
:103D580003D13B685B05DDD47FE70223032A03D147
:103D6800396E1942D6D178E7F96DFAE7FFF7D0FB3B
:103D7800019BC01A0A4B984288D9B3E7A3680A4A3C
:103D88001340EA681343A36088E7C0460020024056
:103D98000010024080770008000000200800002082
:103DA80088130000FFF0FFFFFF8FFFFF064B074A55
:103DB8009B685B045B0F9B009B581F221340044ABF
:103DC8001068D8407047C04600100240C07700080D
:103DD80000000020E021036810B55A688A435A6041
:103DE80082224168520091420CD1802182680902E6
:103DF8008A4203D08021C9008A4203D140211A682F
:103E08008A431A608021826A89018A4206D1196828
:103E1800074C2140196019680A431A6003000122FF
:103E28005D331A7000235C300370032010BDC04658
:103E3800FFDFFFFFF7B50E0014000500FFF768FB72
:103E4800A419241AFFF764FB07000F4B1B685B01DA
:103E58001B0D634301932B6880229868104009D09A
:103E6800721CF9D0FFF754FBC01BA04203D32800F3
:103E7800FFF7B0FFFEBD019B5A1E93415B421C40F9
:103E8800019B013BE6E7C04600000020F0B51600A4
:103E98001C0085B00F000500FFF73AFBA419241A8F
:103EA800FFF736FB2322124B01901B6853431B0D6F
:103EB800634303932B68986838400FD0C022D20020
:103EC800974200D11A7B721CF5D0FFF721FB019BAA
:103ED800C01AA04204D32800FFF77CFF05B0F0BD4C
:103EE800039B5A1E93415B421C40039B013BE0E746
:103EF8000000002070B513000D0016000A00C02154
:103F080049010400FFF7C2FF002805D02023226ED4
:103F18000320134323660FE0320029002000FFF737
:103F280089FF0028F2D1C02133002A00C9002000EF
:103F3800FFF7ACFF0028E9D170BD0000F8B5040018
:103F48000120002C67D0636A002B65D1822261684A
:103F58005200914200D0E36100232500A3625D3541
:103F68002B78DBB2002B05D122005C3213702000C5
:103F7800FFF7AAF90223402122682B701368E5682D
:103F88008B43E0211360C90000238D4248D880206C
:103F980040018D4200D0A362822366685B003340F3
:103FA8008426A76836023E40334302262769A16962
:103FB8003E40334301266769B44637403B43802778
:103FC800BF000F403B433827E669090C37403B43A5
:103FD8008027266A37403B438027A66ABF013740BF
:103FE8003B43136010230827666A3340666B3740EB
:103FF8003B43F0273F013D401D430423194029431B
:1040080008435060D369084900200B40D3616346D8
:1040180020665D342370F8BD0023236163619BE74C
:10402800F02118000901B4E7FFF7FFFFF7B51E00FC
:1040380003005C3317001A7804000D000220012ADF
:1040480000D1A8E001221A70FFF762FA230001905C
:104058005D331B786168DBB2012B0CD08222022011
:104068005200914200D08FE0A268002A00D08BE075
:10407800042B00D088E00120002D00D184E0002F1F
:1040880000D181E0002E00D17EE023005D331A7854
:10409800042A01D005221A70220000230832236660
:1040A8002764D687A21DD687E022E068E3642365EB
:1040B800A563E687A6872368D200904230D95A685C
:1040C8005A4F3A405A6040221F68174202D11F686F
:1040D8003A431A60E022D20090425DD9002901D00B
:1040E800012E07D12A880235DA60E38FA563013BE8
:1040F8009BB2E387012502272E00E38F002B14D102
:1041080023000833DB8F002B0FD1019A0899200078
:10411800FFF7F0FE002837D020230120236633E084
:1041280080225F6852013A43CCE721688B683B42A2
:104138000ED0E38F002B0BD0012D09D10025A36BE6
:104148001A880233CA60A363E38F013B9BB2E387FB
:104158008B6833420ED022000832D38F002B09D04F
:104168003500C968236C198002332364D38F013B5F
:104178009BB2D387FFF7CCF9019BC01A089B8342F7
:10418800BBD80133B9D00320230001225D331A7054
:1041980000235C342370FEBD002901D0012E08D114
:1041A8002A781A73A36B0133A363E38F013B9BB295
:1041B800E387012502272E00E38F002B04D123007B
:1041C8000833DB8F002BA0D023689A683A420FD0BF
:1041D800E28F002A0CD0012D0AD10025A26B12789B
:1041E8001A73A36B0133A363E38F013B9BB2E3878D
:1041F80023689A6832420FD022000832D18F0029F2
:104208000AD035001B7B216C0B70236C01332364AF
:10421800D38F013B9BB2D387FFF77AF9019BC01A72
:10422800089B8342C8D80133C6D0ACE7FFEFFFFF35
:104238000122036A70B593430362036A164A44680D
:10424800856915400A681543022293438A68134317
:10425800124A904205D0124EB04202D0114EB042DE
:1042680013D10826B343CE6833430426B3439042A0
:1042780005D00B4A904202D00A4A904205D10A4A18
:104288008E6922404C69344314434A68446085610E
:104298004263036270BDC0468CFFFEFF002C0140E4
:1042A8000044014000480140FFFCFFFF036A174A31
:1042B80070B513400362036A154D4268C4692C4007
:1042C8000D682C43134D2B408D682D022B43124D46
:1042D800A8420ED1114D1D40CB681B022B43104D37
:1042E8002B40104D4E6915408A69324312012A430A
:1042F80005E00D4DA842F4D00C4DA842F1D0426023
:104308004A68C461C263036270BDC046FFFEFFFF16
:104318008CFFFEFFFFFDFFFF002C0140FFF7FFFFB2
:10432800FFFBFFFFFFCFFFFF0044014000480140B3
:10433800036A124A30B513400362026A104C43689C
:10434800C56925400C68240225430E4C22408C6820
:10435800240322430C4CA04205D00C4CA04202D0AE
:104368000B4CA04204D10B4C23404C69A4012343BD
:1043780043604B68C5610364026230BDFFEFFFFF15
:10438800FF8CFFFEFFDFFFFF002C014000440140CF
:1043980000480140FFBFFFFF036A114A70B5134090
:1043A8000362046A0F4E4368456D35400E68354315
:1043B8000D4E34408E68360434430C4EB04205D05E
:1043C8000B4EB04202D00B4EB04203D113404A69A3
:1043D8001202134343604B6845658365046270BDF0
:1043E800FFFFFEFF8FFFFEFFFFFFFDFF002C0140D8
:1043F8000044014000480140036A124A30B51340A6
:104408000362026A104C4368456D25400C6824021B
:1044180025430E4C22408C68240522430C4CA042B4
:1044280005D00C4CA04202D00B4CA04204D10B4C3E
:1044380023404C69A402234343604B684565C36528
:10444800026230BDFFFFEFFFFF8FFFFEFFFFDFFFC0
:10445800002C01400044014000480140FFFFFBFFE1
:10446800194A10B50368904202D0184CA04208D1EE
:104478007024A3434C68234390420BD0134CA042B2
:1044880008D0134CA04205D0124CA04202D0124CC6
:10449800A04203D1114C2340CC6823438024A3437A
:1044A8004C69234303608B68C3620B688362904244
:1044B80005D0084B984202D0074B984201D10B69AE
:1044C80003630123436110BD002C01400004004038
:1044D800002000400044014000480140FFFCFFFF6D
:1044E80070B504000120002C23D025003D352B7821
:1044F800DBB2002B05D122003C3213702000FEF7FE
:1045080011FF022320682B70211DFFF7A9FF22004D
:10451800012300204832137047340A3A137053704D
:104528009370D370137153719371D3711372237095
:104538002B7070BD1022036A70B593430362026A40
:10454800154D436884692C400D682D022C432025A5
:10455800AA438D682D012A43104DA8420FD180250A
:10456800AA431500CA6812012A434025AA430C4DE4
:104578004E691D408B6933439B002B4305E0094D71
:10458800A842F4D0084DA842F1D043604B6884613A
:104598008363026270BDC046FF8CFFFE002C0140A1
:1045A800FFF3FFFF0044014000480140F8B5070051
:1045B8003C373B7804000D0016000220012B0AD07E
:1045C80001233B70082A40D006D8002A1BD0042AB1
:1045D8002AD000203870F8BD102A46D0142A55D0A9
:1045E8000C2AF6D12068FFF7A3FE80222368120167
:1045F800D9690A43DA61DA692D490A40DA612A6918
:10460800D96912022EE02068FFF712FE08222368FB
:1046180099690A4304219A619A698A439A619A6955
:1046280029690A439A61D4E72068FFF783FF80224B
:104638002368120199690A439A619A691C490A40D8
:104648009A612A6999691202EBE72068FFF72EFE42
:1046580004212368DA691643DE61DA698A43DA617C
:10466800DA6929690A43DA61B3E72068FFF794FE3B
:1046780008222368596D0A4304215A655A6D8A43F2
:104688005A655A6D29690A435A65A2E72068FFF7F7
:10469800B3FE802223681201596D0A435A655A6D88
:1046A80003490A405A652A69596D1202EBE7C04668
:1046B800FFFBFFFF1F2310B5012419408C408A40DF
:1046C800036AA3430362036A1A43026210BD00002F
:1046D80010B503000400002905D101203E331A78E3
:1046E800824262D010BD04290AD101203F331A78D2
:1046F8008242F7D102221A7022680423D06859E056
:1047080008290AD1012040331A788242EAD10222CC
:104718001A7022680823D0684CE00C290AD10120BD
:1047280041331A788242DDD102221A70226810239E
:10473800D0683FE0102925D1012042331A788242FF
:10474800D0D102221A7001222068FFF7B3FF236834
:1047580021498B4231D0214A93422ED0204A93429C
:104768002BD0204A934230D19A681F4900200A4032
:10477800062AB7D007398A42B4D0012219680A43F9
:104788001A60AFE7012043331A788242AAD1022285
:104798001A700C29D7D80800FBF7AEFC09D5D5D577
:1047A800AED5D5D5BBD5D5D5C80002221A700223FF
:1047B8002268D0680343D360C5E78022586C120290
:1047C80002435A648B42CCD1CEE7012219680020FB
:1047D8000A431A6086E7C046002C014000440140A5
:1047E800004801400004004007000100F0B5040043
:1047F80002223C34257803001000012D21D01D0031
:1048080001383D3520700F4E2A701A685368906839
:10481800B24203D10C4F3B404F683B437027BB4328
:104828000F683B435360B24202D0084B9A4204D10E
:10483800802398438B6818439060012300202B70D5
:104848002070F0BD002C0140FFFF0FFF0004004066
:1048580010B504003C34237802000220012B39D023
:10486800C8681D4B12680340886803431B4803400F
:10487800486803431A48034008680343194803403B
:10488800086903431848034048690343174803402D
:10489800086B03431648034088690004034315481E
:1048A800824214D114480340C8690343134818408E
:1048B8008B6A1B05034312480340086A03431148E7
:1048C8000340486AC96A03430F4803400B4300206A
:1048D8005364207010BDC046FFFCFFFFFFFBFFFFC5
:1048E800FFF7FFFFFFEFFFFFFFDFFFFFFFBFFFFF48
:1048F800FFFFF0FF002C0140FFFFFFEFFFFF0FFF5E
:10490800FFFFFFFEFFFFFFFDFFFFFFDF70B50400A5
:1049180002698368C16913434269656E134302687B
:104928000B4310682B43474D2840034313605368DB
:104938004548256A0340E06803435360A3699068CB
:104948002B43424D284003430F209360D36A83438F
:10495800606A0343D3623E4B9A4212D103223D4B15
:104968005B6D13403C4AD05C80231B0299420DD0FA
:10497800082809D8FBF7CAFB4D085508520808084B
:104988003600364B9A424ED0012055E00828FBD815
:10499800FBF7B2FB4DFA08FA05FAFAFA2500FFF719
:1049A80011F946E02E48636A2E4A5B00995AFBF7D4
:1049B800B7FB656840006B08C0182900FBF7B0FB1F
:1049C80003041A0C2849103A8A42DDD80F221B0327
:1049D800904380B222685B0F1843D0602BE08020A0
:1049E8000002E0E780200002636A1E4A5B00995AD1
:1049F800FBF796FB65686B08C0182900FBF790FB6E
:104A080080B20200184B103A9A42BDD82368D86089
:104A180011E0FFF7CBF90028E6D10CE0FFF7D2F858
:104A2800F9E70F48E0E780231B029942F1D1FFF72D
:104A3800BDF90028B7D100200C4BA36600232367DB
:104A4800636770BDF369FFCFFFCFFFFFFFF4FF116E
:104A58000038014000100240E077000800440040A0
:104A68000024F400E4770008EFFF000001000100D3
:104A7800836A30B5DA0706D50168284C4A682240AF
:104A8800C46A22434A609A0706D50168244C4A68DA
:104A98002240046B22434A605A0706D50168214C1C
:104AA8004A682240446B22434A601A0706D50168C7
:104AB8001D4C4A682240846B22434A60DA0606D5B8
:104AC80001681A4C8A682240C46B22438A609A069D
:104AD80006D50168164C8A682240046C22438A6015
:104AE8005A0610D50168134D4A68446C2A4022437F
:104AF8004A6080225203944205D14A680E4C2240F3
:104B0800846C22434A601B0606D502680B49536829
:104B18000B40C16C0B43536030BDC046FFFFFDFF27
:104B2800FFFFFEFFFFFFFBFFFF7FFFFFFFEFFFFF22
:104B3800FFDFFFFFFFFFEFFFFFFF9FFFFFFFF7FF15
:104B4800F7B5802704000E00150001933F01226885
:104B5800D36933409B1B59424B41AB4201D00020E3
:104B68001FE0089B0133F3D0FEF7D2FC019B089AA3
:104B7800C01A2368904201D8002A13D11A6816492E
:104B88000A401A609A68A331FF318A439A6022006A
:104B980020230832D3678032136000230320803437
:104BA8002370FEBD04211A680A42D0D0DA693A425D
:104BB800CDD01F621A6808490A401A609A68A33162
:104BC800FF318A439A60220020230832D36780325B
:104BD80013605360E1E7C0465FFEFFFFF0B51700C2
:104BE800020087B008320593D36F04000D0002203D
:104BF800202B4DD1013800294AD0002F48D08023DE
:104C0800A1685B01994204D12369002B01D10542B7
:104C18003ED12600803633780220012B38D001237C
:104C28003370230000218C3319602123D367FEF7EA
:104C38006FFC230054331F8002331F8003938023AB
:104C4800A26804905B0100279A4204D12369BB4201
:104C580001D12F001D0000233370230056331A881A
:104C6800059B92B20093049B002A09D140212000A1
:104C7800FFF766FF00280AD120230834E36707E01E
:104C8800002280212000FFF75BFF002802D00320CC
:104C980007B0F0BD2268002D0BD13B880237DB0539
:104CA800DB0D9362039B039A1B88013B9BB2138025
:104CB800D3E72B7801359362F4E70000030073B55E
:104CC800002604008C331E60FEF722FC23680500D2
:104CD8001B681B0719D423681B685B070AD580214A
:104CE800104B00220093C9032B002000FFF728FF78
:104CF800002815D12200202300200832D3678032F3
:104D08001360E066803420700BE08021054B320090
:104D18000093890303002000FFF712FF0028DAD070
:104D2800032076BDFFFFFF0170B5041E01D10120ED
:104D380070BD05000835EB6F002B04D102008032EE
:104D48001370FEF72BFB242301212268EB671368FD
:104D580020008B431360FFF7D9FD0128E7D0A36A31
:104D6800002B02D02000FFF783FE236807495A680A
:104D780020000A402A215A609A688A439A600122D0
:104D880019680A431A60FFF799FFD1E7FFB7FFFFD9
:104D9800F7B5020000270B6800930098F84000D18F
:104DA800FEBD0123BB400098034033D0486803246C
:104DB80084461800654658434443013DE443012DA9
:104DC8000BD88D689668454326403543CE68956074
:104DD8005E4355689D43354355600D69D668454324
:104DE80026403543D5606546022D0DD14D690195A4
:104DF800FF2B11D803000F2543435D43166AAE43CA
:104E0800019D6B431E43166213681C40634658435A
:104E1800044314600137C0E70F261B0A5B435B435A
:104E28005E43556AB543019E73431D435562EBE7E4
:104E38000D488546FEF71CFB0C480D490D4A00231A
:104E480002E0D458C4500433C4188C42F9D30A4A37
:104E58000A4C002301E013600432A242FBD300F0A5
:104E680017F8FEF701F9FEE70020002000000020F7
:104E7800DC010020C87A0008DC0100205003002073
:104E8800FEE70000014B18687047C0460C00002080
:104E980070B500260C4D0D4C641BA410A64209D118
:104EA800002602F0B7FB0A4D0A4C641BA410A64268
:104EB80005D170BDB300EB5898470136EEE7B30053
:104EC800EB5898470136F2E7C07A0008C07A000824
:104ED800C07A0008C47A000803001218934200D16F
:104EE800704719700133F9E7F0B58BB014001D1E37
:104EF800129953DA802424061B191D0014002D234F
:104F08000B702023149E03229E43462E07D03300A5
:104F1800453B59424B411099013ACB18109309ABC4
:104F2800049308AB0393139B00920293109B2200F7
:104F380001932B0000F0D6FC0700472E02D1119BED
:104F4800DB0724D5109BFB180793462E14D13B781A
:104F5800302B0CD10022002320002900FCF702FA94
:104F6800002804D10123109A9B1A139A1360139BEB
:104F7800079A1B68D31807930022002320002900F2
:104F8800FCF7F0F9302200280DD0079B0993380070
:104F9800099B159ADB1B13600BB0F0BD0023AFE72C
:104FA800591C09911A70099B07998B42F8D3EEE7AF
:104FB800F0B5831C85B0019306000C0002702B230A
:104FC800002901DA2D234C427370092C22DD02AB33
:104FD800DD1D20000A21FBF713FA6F1E30313970EE
:104FE80020000A21FBF726F9040009280BDC023D02
:104FF8003034019B2C7002AA07321800AA4204D848
:10500800801B05B0F0BD3D00E3E72A7801351A7032
:105018000133F0E73023E418B370301DF470EFE784
:10502800F0B595B00C000A920B931A9D099001F007
:105038000FFB036818000C93FCF77CF9002312930C
:1050480023680E900D930D99277E2B680722C905BA
:1050580045D59B1893431A0008322A601A685B6882
:10506800A264E3640122E56CA66C6B005B080F93F5
:105078005242AC4B30000F99FDF782FE002830D128
:105088000122A84B524230000F99FCF77BF9002807
:1050980027D10022002330002900FCF769F90028F5
:1050A80003D023002D2243331A709F4D472F00D879
:1050B8009E4D032300260D9A236101339A432260F3
:1050C8000B9B13AA009321000A9B099800F0F4F99E
:1050D800431C00D093E00120404215B0F0BD0733D7
:1050E800B8E732002B0030002900FDF749FE002800
:1050F80004D08F4D472FDCD88E4DDAE780230D99E9
:105108006268DB000B43511C43D10732626012AA6C
:105118000021059211AA039223222360069101938C
:1051280008A9636852180292009332002B00049772
:105138000998FFF7D9FE20233A0005009A43472A29
:1051480007D1119BDA1C02DB6268934245DD023FFE
:10515800FFB21199652F25D8200001393A00503047
:105168001191FFF725FF129A060013182361012AEF
:1051780002DC2268D20701D501332361232308AA60
:105188009B181B78002B9BD023002D2243331A70C9
:1051980096E7672F00D176E1472FB8D1002AB6D11C
:1051A8000122B3E7662F19D1636800290CDD21615C
:1051B800002B02D12268D20702D501335B18236184
:1051C800119B0026A365D9E7002B03D10122216892
:1051D800114200D09A1C2261F2E76727119B129AAC
:1051E800934205DB22682361D207E9D50133E6E75C
:1051F8000121002B01DC4918C91A5218EBE7226873
:10520800530508D423692A000A9909980B9DA847D1
:10521800431C29D15FE7652F00D8E0E0A06CE16C62
:1052280000220023FCF79EF8002834D00123424ACC
:105238000A9909980B9DA847431C00D14BE7119B7D
:10524800129A934202DB2368DB070DD50B9D0E9B58
:105258000C9A0A990998A8470025431C00D13AE7F7
:10526800129B013BAB420ADC23689B0700D508E18F
:10527800139BE068984200DB2FE718002DE7220017
:1052880001231A320A9909980B9EB047431C00D192
:1052980021E70135E4E7119B002B2DDC0123264A89
:1052A8000A9909980B9EB047431C00D113E7119B3C
:1052B800002B05D1129B002B02D12368DB07D3D525
:1052C8000B9E0E9B0C9A0A990998B0470026431C1E
:1052D80000D100E7119B5B42B34201DC129B92E7CD
:1052E800220001231A320A9909980B9FB847431CD8
:1052F80000D1F0E60136EDE7A36D129F9F4200DD75
:105308001F00002F08DD3B002A000A9909980B9E10
:10531800B047431C00D1DEE600230D93FB43DB17A7
:105328000F9318E0FFFFEF7F04780008007800086B
:105338000C7800080878000810780008220001237B
:105348001A320A9909980B9EB047431C00D1C2E64D
:105358000D9B01330D930F9BA66D0D9A3B40F31ADD
:105368009342EBDC119B129AAD19934210DB236830
:10537800DB070DD4129F119BBE1BFF1AB74200DD3D
:105388003700002F0DDCFE43F31700250C931CE0BB
:105398000E9B0C9A0A9909980B9FB847431CE9D1B0
:1053A80099E63B002A000A9909980B9DA847431CD7
:1053B800E9D190E6220001231A320A9909980B9E36
:1053C800B047431C00D186E60135119A129B0C990F
:1053D8009B1A3A000A409B1AAB42EBDC44E7129B4B
:1053E800012B02DC01231A4232D001232A000A9938
:1053F80009980B9FB847431C00D16CE60E9B0C9A8A
:105408000A9909980B9F0135B847431C00D162E6F9
:10541800A06CE16C129B00225F1E0023FBF7A2FF29
:105428003B00002814D000250AE0220001231A328C
:105438000A9909980B9FB847431C00D14BE60135E0
:10544800129B013BAB42F0DC220033005032DBE61A
:105458002A000A9909980B9DA847431CF4D13AE6FB
:105468002200012319320A9909980B9EB047431C60
:1054780000D130E60135E368139A9B1AAB42EFDCA2
:10548800F6E60025F7E7002A00D189E60021069113
:1054980012A9059111A90391232108A809182360CD
:1054A800019300922B000497029132000998FFF7AC
:1054B8001BFD050045E6C046F7B5150001938A684F
:1054C8000B6900900C00934200DA130022002B6055
:1054D80043321278002A01D001332B6023689B06DF
:1054E80002D52B6802332B60062723681F4027D07C
:1054F800230043331B785A1E93412268920630D406
:105508002200019943320098089EB047431C25D0D9
:10551800062320682A68E16803400025042B03D18C
:105528008D1AEB43DB171D40A3682269934201DD06
:105538009B1AED180027BD4220D1002010E001374A
:10554800E3682A689B1ABB42D2DD22000123193284
:1055580001990098089EB047431CF0D101204042B1
:10556800FEBD3020E1184331087021005A1C453136
:105578000978A218433202331170C1E722000123CF
:105588001A3201990098089EB047431CE6D00137AB
:10559800D1E70000F0B589B004920A0043320593C0
:1055A800039002920A7E0C000E9B6E2A00D186E0C0
:1055B8001FD8632A33D008D8002A00D18CE0582A93
:1055C8004DD0250042352A7030E0642A01D0692A7E
:1055D800F7D1196825680A1D280629D508681A60B0
:1055E800002803DA2D23029A404213706B4E0A27D3
:1055F8004FE0732A74D008D86F2A1FD0702AE0D1E0
:10560800202209680A43226003E0752A16D0782A06
:10561800D7D12200782145321170614E22E0250051
:105628001A684235111D196013682B70012365E053
:1056380008681A606906D3D500B2D1E719682568E9
:10564800081D186008682E0605D5544E08276F2ACD
:105658001BD00A2719E06D06F7D580B2F5E745316A
:105668004E4E0A7018682268011D006819601506F8
:1056780021D5D30702D520231A43226010270028FA
:1056880003D1202322689A43226023000022433357
:105698001A706368A360002B58DB042221689143C9
:1056A8002160002854D1029D002B5AD02500337860
:1056B80042352B7055E05506DBD580B2D9E71A681C
:1056C8000D68101D4969186013682E0601D5196008
:1056D80002E06D06FBD519800023029D23614FE08F
:1056E8001A68111D1960156800216268280000F009
:1056F800C5FF002801D0401B606063682361002358
:10570800029A13703CE023692A0004990398059DC6
:10571800A847431C3ED023689B0715D4079BE06825
:10572800984239DA180037E0220001231932049927
:105738000398059EB047431C2CD00135E368079AAF
:105748009B1AAB42F0DCE9E70025F7E70028ADD06B
:10575800029D3900FAF76AFD735C013D2B70002841
:10576800F7D1082F09D12368DB0706D563682269BA
:10577800934202DC3023013D2B70029B5B1B2361AB
:10578800059B07AA00932100049B0398FFF794FE4A
:10579800431CB8D10120404209B0F0BD127800087E
:1057A800237800080FB40B4B13B51C68002C05D0E8
:1057B800A369002B02D1200000F0B6FE05AB049AC5
:1057C800A1682000019301F031FB16BC08BC04B0AD
:1057D8001847C0460C000020F0B503690C6989B071
:1057E800070005910026A34265DB0B00013C14333A
:1057F800A50003935B1904930300143302935D1906
:10580800049B28681B68591C0193FAF789FC0190CE
:10581800B04229D0039B02989C460696624608CA65
:105828009446019A99B251431B0C534389190A0CA7
:105838009B1807931E0C036889B29AB2069BD2186C
:105848000368521A190C6B469B8BCB1A11145B1800
:10585800191492B21B041A43049B069104C06345B1
:10586800DCD22B68002B2DD00599380001F02EF9D9
:1058780000281FDB0025019B02980133039901933F
:10588800026808C992B255199AB2AA1A05681B0C7F
:105898002D0CEB1A15145B191D1492B21B0413433B
:1058A80008C0049B8B42EBD2029AA300D3181A6853
:1058B800002A11D0019E300009B0F0BD2B68002BE2
:1058C80004D1013C029B043DAB42F7D33C61CBE7DA
:1058D8001A68002A04D1013C029A043B9A42F7D381
:1058E8003C61E7E7F0B516001F00446A9BB00290E0
:1058F800239D06960797002C08D1102000F0B4FECF
:10590800029B5862446084600460C460029B5B6AC6
:10591800196800290BD05A68012393404A608B60AC
:10592800029800F0F7FE0022029B5B6A1A60002FC3
:1059380020DA01232B607B005B080793079CB24B9E
:10594800220017931A409A4217D1B04B229A13603B
:10595800069B002B03D1240301D100F087FDAC4B3B
:10596800249A0893002A02D0AA4B249A1360089814
:105978001BB0F0BD00232B60E0E7069E079F0022C6
:10598800002330003900FBF7EDFC051E0BD0012386
:10599800229A1360A04B249A0893002AE7D09F4AC2
:1059A80024990A60E3E718AB019319AB009332001E
:1059B8003B00029801F008F9630003905B0D74D076
:1059C8003A03974C120B14432100964A300016955F
:1059D8009E180022944BFCF78BFE944A944BFCF7DC
:1059E80015FC944A944BFBF7EBFC040030000D00C7
:1059F800FDF718FA914A924BFCF708FC02000B00DD
:105A080020002900FBF7DCFC04000D00FDF7D4F9A9
:105A180000220700002320002900FBF7A9FC00282A
:105A280009D03800FDF7FEF92B002200FBF79AFC9D
:105A3800434258413F1A01231493162F0DD8814928
:105A4800FB00C91808684968069A079BFBF7A4FC7D
:105A5800002846D00023013F1493189B9E1B002367
:105A68000A933300013B0B9304D501239B1B0A9334
:105A780000230B93002F36DB0B9B1197DB190B933D
:105A880000230493209B0124092B00D984E0052BD3
:105A980002DD0024043B2093209B981E032800D994
:105AA80084E0FAF733FB7577286A189B199A9E18D1
:105AB800654BF218202A0FDD40239B1A9C40634B4C
:105AC8000698F318D8402043FDF7E6F90123604C07
